{"abi":[{"type":"constructor","inputs":[{"name":"name","type":"string","internalType":"string"},{"name":"symbol","type":"string","internalType":"string"},{"name":"decimals","type":"uint8","internalType":"uint8"},{"name":"initialSupply","type":"uint256","internalType":"uint256"}],"stateMutability":"nonpayable"},{"type":"function","name":"DOMAIN_SEPARATOR","inputs":[],"outputs":[{"name":"","type":"bytes32","internalType":"bytes32"}],"stateMutability":"view"},{"type":"function","name":"allowance","inputs":[{"name":"","type":"address","internalType":"address"},{"name":"","type":"address","internalType":"address"}],"outputs":[{"name":"","type":"uint256","internalType":"uint256"}],"stateMutability":"view"},{"type":"function","name":"approve","inputs":[{"name":"spender","type":"address","internalType":"address"},{"name":"amount","type":"uint256","internalType":"uint256"}],"outputs":[{"name":"","type":"bool","internalType":"bool"}],"stateMutability":"nonpayable"},{"type":"function","name":"balanceOf","inputs":[{"name":"","type":"address","internalType":"address"}],"outputs":[{"name":"","type":"uint256","internalType":"uint256"}],"stateMutability":"view"},{"type":"function","name":"decimals","inputs":[],"outputs":[{"name":"","type":"uint8","internalType":"uint8"}],"stateMutability":"view"},{"type":"function","name":"name","inputs":[],"outputs":[{"name":"","type":"string","internalType":"string"}],"stateMutability":"view"},{"type":"function","name":"nonces","inputs":[{"name":"","type":"address","internalType":"address"}],"outputs":[{"name":"","type":"uint256","internalType":"uint256"}],"stateMutability":"view"},{"type":"function","name":"permit","inputs":[{"name":"owner","type":"address","internalType":"address"},{"name":"spender","type":"address","internalType":"address"},{"name":"value","type":"uint256","internalType":"uint256"},{"name":"deadline","type":"uint256","internalType":"uint256"},{"name":"v","type":"uint8","internalType":"uint8"},{"name":"r","type":"bytes32","internalType":"bytes32"},{"name":"s","type":"bytes32","internalType":"bytes32"}],"outputs":[],"stateMutability":"nonpayable"},{"type":"function","name":"symbol","inputs":[],"outputs":[{"name":"","type":"string","internalType":"string"}],"stateMutability":"view"},{"type":"function","name":"totalSupply","inputs":[],"outputs":[{"name":"","type":"uint256","internalType":"uint256"}],"stateMutability":"view"},{"type":"function","name":"transfer","inputs":[{"name":"to","type":"address","internalType":"address"},{"name":"amount","type":"uint256","internalType":"uint256"}],"outputs":[{"name":"","type":"bool","internalType":"bool"}],"stateMutability":"nonpayable"},{"type":"function","name":"transferFrom","inputs":[{"name":"from","type":"address","internalType":"address"},{"name":"to","type":"address","internalType":"address"},{"name":"amount","type":"uint256","internalType":"uint256"}],"outputs":[{"name":"","type":"bool","internalType":"bool"}],"stateMutability":"nonpayable"},{"type":"event","name":"Approval","inputs":[{"name":"owner","type":"address","indexed":true,"internalType":"address"},{"name":"spender","type":"address","indexed":true,"internalType":"address"},{"name":"amount","type":"uint256","indexed":false,"internalType":"uint256"}],"anonymous":false},{"type":"event","name":"Transfer","inputs":[{"name":"from","type":"address","indexed":true,"internalType":"address"},{"name":"to","type":"address","indexed":true,"internalType":"address"},{"name":"amount","type":"uint256","indexed":false,"internalType":"uint256"}],"anonymous":false}],"bytecode":{"object":"0x60e06040523480156200001157600080fd5b5060405162000f8a38038062000f8a833981016040819052620000349162000256565b838383600062000045848262000370565b50600162000054838262000370565b5060ff81166080524660a0526200006a62000088565b60c052506200007e91503390508262000124565b50505050620004e2565b60007f8b73c3c69bb8fe3d512ecc4cf759cc79239f7b179b0ffacaa9a75d522b39400f6000604051620000bc91906200043c565b6040805191829003822060208301939093528101919091527fc89efdaa54c0f20c7adf612882df0950f5a951637e0307cdcb4c672f298b8bc660608201524660808201523060a082015260c00160405160208183030381529060405280519060200120905090565b8060026000828254620001389190620004ba565b90915550506001600160a01b0382166000818152600360209081526040808320805486019055518481527fddf252ad1be2c89b69c2b068fc378daa952ba7f163c4a11628f55a4df523b3ef910160405180910390a35050565b634e487b7160e01b600052604160045260246000fd5b600082601f830112620001b957600080fd5b81516001600160401b0380821115620001d657620001d662000191565b604051601f8301601f19908116603f0116810190828211818310171562000201576200020162000191565b816040528381526020925086838588010111156200021e57600080fd5b600091505b8382101562000242578582018301518183018401529082019062000223565b600093810190920192909252949350505050565b600080600080608085870312156200026d57600080fd5b84516001600160401b03808211156200028557600080fd5b6200029388838901620001a7565b95506020870151915080821115620002aa57600080fd5b50620002b987828801620001a7565b935050604085015160ff81168114620002d157600080fd5b6060959095015193969295505050565b600181811c90821680620002f657607f821691505b6020821081036200031757634e487b7160e01b600052602260045260246000fd5b50919050565b601f8211156200036b57600081815260208120601f850160051c81016020861015620003465750805b601f850160051c820191505b81811015620003675782815560010162000352565b5050505b505050565b81516001600160401b038111156200038c576200038c62000191565b620003a4816200039d8454620002e1565b846200031d565b602080601f831160018114620003dc5760008415620003c35750858301515b600019600386901b1c1916600185901b17855562000367565b600085815260208120601f198616915b828110156200040d57888601518255948401946001909101908401620003ec565b50858210156200042c5787850151600019600388901b60f8161c191681555b5050505050600190811b01905550565b60008083546200044c81620002e1565b600182811680156200046757600181146200047d57620004ae565b60ff1984168752821515830287019450620004ae565b8760005260208060002060005b85811015620004a55781548a8201529084019082016200048a565b50505082870194505b50929695505050505050565b80820180821115620004dc57634e487b7160e01b600052601160045260246000fd5b92915050565b60805160a05160c051610a78620005126000396000610426015260006103f1015260006101290152610a786000f3fe608060405234801561001057600080fd5b50600436106100b45760003560e01c806370a082311161007157806370a08231146101655780637ecebe001461018557806395d89b41146101a5578063a9059cbb146101ad578063d505accf146101c0578063dd62ed3e146101d557600080fd5b806306fdde03146100b9578063095ea7b3146100d757806318160ddd146100fa57806323b872dd14610111578063313ce567146101245780633644e5151461015d575b600080fd5b6100c1610200565b6040516100ce91906107b0565b60405180910390f35b6100ea6100e536600461081a565b61028e565b60405190151581526020016100ce565b61010360025481565b6040519081526020016100ce565b6100ea61011f366004610844565b6102fb565b61014b7f000000000000000000000000000000000000000000000000000000000000000081565b60405160ff90911681526020016100ce565b6101036103ed565b610103610173366004610880565b60036020526000908152604090205481565b610103610193366004610880565b60056020526000908152604090205481565b6100c1610448565b6100ea6101bb36600461081a565b610455565b6101d36101ce3660046108a2565b6104cd565b005b6101036101e3366004610915565b600460209081526000928352604080842090915290825290205481565b6000805461020d90610948565b80601f016020809104026020016040519081016040528092919081815260200182805461023990610948565b80156102865780601f1061025b57610100808354040283529160200191610286565b820191906000526020600020905b81548152906001019060200180831161026957829003601f168201915b505050505081565b3360008181526004602090815260408083206001600160a01b038716808552925280832085905551919290917f8c5be1e5ebec7d5bd14f71427d1e84f3dd0314c0f7b2291e5b200ac8c7c3b925906102e99086815260200190565b60405180910390a35060015b92915050565b6001600160a01b03831660009081526004602090815260408083203384529091528120546000198114610357576103328382610982565b6001600160a01b03861660009081526004602090815260408083203384529091529020555b6001600160a01b0385166000908152600360205260408120805485929061037f908490610982565b90915550506001600160a01b03808516600081815260036020526040908190208054870190555190918716907fddf252ad1be2c89b69c2b068fc378daa952ba7f163c4a11628f55a4df523b3ef906103da9087815260200190565b60405180910390a3506001949350505050565b60007f000000000000000000000000000000000000000000000000000000000000000046146104235761041e610716565b905090565b507f000000000000000000000000000000000000000000000000000000000000000090565b6001805461020d90610948565b33600090815260036020526040812080548391908390610476908490610982565b90915550506001600160a01b038316600081815260036020526040908190208054850190555133907fddf252ad1be2c89b69c2b068fc378daa952ba7f163c4a11628f55a4df523b3ef906102e99086815260200190565b428410156105225760405162461bcd60e51b815260206004820152601760248201527f5045524d49545f444541444c494e455f4558504952454400000000000000000060448201526064015b60405180910390fd5b6000600161052e6103ed565b6001600160a01b038a811660008181526005602090815260409182902080546001810190915582517f6e71edae12b1b97f4d1f60370fef10105fa2faae0126114a169c64845d6126c98184015280840194909452938d166060840152608083018c905260a083019390935260c08083018b90528151808403909101815260e08301909152805192019190912061190160f01b6101008301526101028201929092526101228101919091526101420160408051601f198184030181528282528051602091820120600084529083018083525260ff871690820152606081018590526080810184905260a0016020604051602081039080840390855afa15801561063a573d6000803e3d6000fd5b5050604051601f1901519150506001600160a01b038116158015906106705750876001600160a01b0316816001600160a01b0316145b6106ad5760405162461bcd60e51b815260206004820152600e60248201526d24a72b20a624a22fa9a4a3a722a960911b6044820152606401610519565b6001600160a01b0390811660009081526004602090815260408083208a8516808552908352928190208990555188815291928a16917f8c5be1e5ebec7d5bd14f71427d1e84f3dd0314c0f7b2291e5b200ac8c7c3b925910160405180910390a350505050505050565b60007f8b73c3c69bb8fe3d512ecc4cf759cc79239f7b179b0ffacaa9a75d522b39400f600060405161074891906109a3565b6040805191829003822060208301939093528101919091527fc89efdaa54c0f20c7adf612882df0950f5a951637e0307cdcb4c672f298b8bc660608201524660808201523060a082015260c00160405160208183030381529060405280519060200120905090565b600060208083528351808285015260005b818110156107dd578581018301518582016040015282016107c1565b506000604082860101526040601f19601f8301168501019250505092915050565b80356001600160a01b038116811461081557600080fd5b919050565b6000806040838503121561082d57600080fd5b610836836107fe565b946020939093013593505050565b60008060006060848603121561085957600080fd5b610862846107fe565b9250610870602085016107fe565b9150604084013590509250925092565b60006020828403121561089257600080fd5b61089b826107fe565b9392505050565b600080600080600080600060e0888a0312156108bd57600080fd5b6108c6886107fe565b96506108d4602089016107fe565b95506040880135945060608801359350608088013560ff811681146108f857600080fd5b9699959850939692959460a0840135945060c09093013592915050565b6000806040838503121561092857600080fd5b610931836107fe565b915061093f602084016107fe565b90509250929050565b600181811c9082168061095c57607f821691505b60208210810361097c57634e487b7160e01b600052602260045260246000fd5b50919050565b818103818111156102f557634e487b7160e01b600052601160045260246000fd5b600080835481600182811c9150808316806109bf57607f831692505b602080841082036109de57634e487b7160e01b86526022600452602486fd5b8180156109f25760018114610a0757610a34565b60ff1986168952841515850289019650610a34565b60008a81526020902060005b86811015610a2c5781548b820152908501908301610a13565b505084890196505b50949897505050505050505056fea2646970667358221220f267ea7dcaeed229e3304512d1e65cfb04eacba37b6f73f04b0b7a88db1e21bb64736f6c63430008150033","linkReferences":{}},"methodIdentifiers":{"DOMAIN_SEPARATOR()":"3644e515","allowance(address,address)":"dd62ed3e","approve(address,uint256)":"095ea7b3","balanceOf(address)":"70a08231","decimals()":"313ce567","name()":"06fdde03","nonces(address)":"7ecebe00","permit(address,address,uint256,uint256,uint8,bytes32,bytes32)":"d505accf","symbol()":"95d89b41","totalSupply()":"18160ddd","transfer(address,uint256)":"a9059cbb","transferFrom(address,address,uint256)":"23b872dd"},"id":6}