{"abi":[{"type":"constructor","inputs":[],"stateMutability":"nonpayable"},{"type":"function","name":"DOMAIN_SEPARATOR","inputs":[],"outputs":[{"name":"","type":"bytes32","internalType":"bytes32"}],"stateMutability":"view"},{"type":"function","name":"allowance","inputs":[{"name":"","type":"address","internalType":"address"},{"name":"","type":"address","internalType":"address"}],"outputs":[{"name":"","type":"uint256","internalType":"uint256"}],"stateMutability":"view"},{"type":"function","name":"approve","inputs":[{"name":"spender","type":"address","internalType":"address"},{"name":"amount","type":"uint256","internalType":"uint256"}],"outputs":[{"name":"","type":"bool","internalType":"bool"}],"stateMutability":"nonpayable"},{"type":"function","name":"balanceOf","inputs":[{"name":"","type":"address","internalType":"address"}],"outputs":[{"name":"","type":"uint256","internalType":"uint256"}],"stateMutability":"view"},{"type":"function","name":"decimals","inputs":[],"outputs":[{"name":"","type":"uint8","internalType":"uint8"}],"stateMutability":"view"},{"type":"function","name":"faucet","inputs":[{"name":"amount","type":"uint256","internalType":"uint256"}],"outputs":[],"stateMutability":"nonpayable"},{"type":"function","name":"name","inputs":[],"outputs":[{"name":"","type":"string","internalType":"string"}],"stateMutability":"view"},{"type":"function","name":"nonces","inputs":[{"name":"","type":"address","internalType":"address"}],"outputs":[{"name":"","type":"uint256","internalType":"uint256"}],"stateMutability":"view"},{"type":"function","name":"permit","inputs":[{"name":"owner","type":"address","internalType":"address"},{"name":"spender","type":"address","internalType":"address"},{"name":"value","type":"uint256","internalType":"uint256"},{"name":"deadline","type":"uint256","internalType":"uint256"},{"name":"v","type":"uint8","internalType":"uint8"},{"name":"r","type":"bytes32","internalType":"bytes32"},{"name":"s","type":"bytes32","internalType":"bytes32"}],"outputs":[],"stateMutability":"nonpayable"},{"type":"function","name":"symbol","inputs":[],"outputs":[{"name":"","type":"string","internalType":"string"}],"stateMutability":"view"},{"type":"function","name":"totalSupply","inputs":[],"outputs":[{"name":"","type":"uint256","internalType":"uint256"}],"stateMutability":"view"},{"type":"function","name":"transfer","inputs":[{"name":"to","type":"address","internalType":"address"},{"name":"amount","type":"uint256","internalType":"uint256"}],"outputs":[{"name":"","type":"bool","internalType":"bool"}],"stateMutability":"nonpayable"},{"type":"function","name":"transferFrom","inputs":[{"name":"from","type":"address","internalType":"address"},{"name":"to","type":"address","internalType":"address"},{"name":"amount","type":"uint256","internalType":"uint256"}],"outputs":[{"name":"","type":"bool","internalType":"bool"}],"stateMutability":"nonpayable"},{"type":"event","name":"Approval","inputs":[{"name":"owner","type":"address","indexed":true,"internalType":"address"},{"name":"spender","type":"address","indexed":true,"internalType":"address"},{"name":"amount","type":"uint256","indexed":false,"internalType":"uint256"}],"anonymous":false},{"type":"event","name":"Transfer","inputs":[{"name":"from","type":"address","indexed":true,"internalType":"address"},{"name":"to","type":"address","indexed":true,"internalType":"address"},{"name":"amount","type":"uint256","indexed":false,"internalType":"uint256"}],"anonymous":false}],"bytecode":{"object":"0x60e06040523480156200001157600080fd5b506040518060400160405280600781526020016626bcaa37b5b2b760c91b815250604051806040016040528060058152602001644d59544f4b60d81b8152506008826000908162000063919062000255565b50600162000072838262000255565b5060ff81166080524660a05262000088620000a7565b60c05250620000a1915033905064174876e80062000143565b620003c7565b60007f8b73c3c69bb8fe3d512ecc4cf759cc79239f7b179b0ffacaa9a75d522b39400f6000604051620000db919062000321565b6040805191829003822060208301939093528101919091527fc89efdaa54c0f20c7adf612882df0950f5a951637e0307cdcb4c672f298b8bc660608201524660808201523060a082015260c00160405160208183030381529060405280519060200120905090565b80600260008282546200015791906200039f565b90915550506001600160a01b0382166000818152600360209081526040808320805486019055518481527fddf252ad1be2c89b69c2b068fc378daa952ba7f163c4a11628f55a4df523b3ef910160405180910390a35050565b634e487b7160e01b600052604160045260246000fd5b600181811c90821680620001db57607f821691505b602082108103620001fc57634e487b7160e01b600052602260045260246000fd5b50919050565b601f8211156200025057600081815260208120601f850160051c810160208610156200022b5750805b601f850160051c820191505b818110156200024c5782815560010162000237565b5050505b505050565b81516001600160401b03811115620002715762000271620001b0565b6200028981620002828454620001c6565b8462000202565b602080601f831160018114620002c15760008415620002a85750858301515b600019600386901b1c1916600185901b1785556200024c565b600085815260208120601f198616915b82811015620002f257888601518255948401946001909101908401620002d1565b5085821015620003115787850151600019600388901b60f8161c191681555b5050505050600190811b01905550565b60008083546200033181620001c6565b600182811680156200034c5760018114620003625762000393565b60ff198416875282151583028701945062000393565b8760005260208060002060005b858110156200038a5781548a8201529084019082016200036f565b50505082870194505b50929695505050505050565b80820180821115620003c157634e487b7160e01b600052601160045260246000fd5b92915050565b60805160a05160c051610b52620003f760003960006104540152600061041f015260006101440152610b526000f3fe608060405234801561001057600080fd5b50600436106100cf5760003560e01c8063579158971161008c57806395d89b411161006657806395d89b41146101d5578063a9059cbb146101dd578063d505accf146101f0578063dd62ed3e1461020357600080fd5b8063579158971461018057806370a08231146101955780637ecebe00146101b557600080fd5b806306fdde03146100d4578063095ea7b3146100f257806318160ddd1461011557806323b872dd1461012c578063313ce5671461013f5780633644e51514610178575b600080fd5b6100dc61022e565b6040516100e99190610856565b60405180910390f35b6101056101003660046108c0565b6102bc565b60405190151581526020016100e9565b61011e60025481565b6040519081526020016100e9565b61010561013a3660046108ea565b610329565b6101667f000000000000000000000000000000000000000000000000000000000000000081565b60405160ff90911681526020016100e9565b61011e61041b565b61019361018e366004610926565b610476565b005b61011e6101a336600461093f565b60036020526000908152604090205481565b61011e6101c336600461093f565b60056020526000908152604090205481565b6100dc610483565b6101056101eb3660046108c0565b610490565b6101936101fe366004610961565b610508565b61011e6102113660046109d4565b600460209081526000928352604080842090915290825290205481565b6000805461023b90610a07565b80601f016020809104026020016040519081016040528092919081815260200182805461026790610a07565b80156102b45780601f10610289576101008083540402835291602001916102b4565b820191906000526020600020905b81548152906001019060200180831161029757829003601f168201915b505050505081565b3360008181526004602090815260408083206001600160a01b038716808552925280832085905551919290917f8c5be1e5ebec7d5bd14f71427d1e84f3dd0314c0f7b2291e5b200ac8c7c3b925906103179086815260200190565b60405180910390a35060015b92915050565b6001600160a01b03831660009081526004602090815260408083203384529091528120546000198114610385576103608382610a57565b6001600160a01b03861660009081526004602090815260408083203384529091529020555b6001600160a01b038516600090815260036020526040812080548592906103ad908490610a57565b90915550506001600160a01b03808516600081815260036020526040908190208054870190555190918716907fddf252ad1be2c89b69c2b068fc378daa952ba7f163c4a11628f55a4df523b3ef906104089087815260200190565b60405180910390a3506001949350505050565b60007f000000000000000000000000000000000000000000000000000000000000000046146104515761044c610751565b905090565b507f000000000000000000000000000000000000000000000000000000000000000090565b61048033826107eb565b50565b6001805461023b90610a07565b336000908152600360205260408120805483919083906104b1908490610a57565b90915550506001600160a01b038316600081815260036020526040908190208054850190555133907fddf252ad1be2c89b69c2b068fc378daa952ba7f163c4a11628f55a4df523b3ef906103179086815260200190565b4284101561055d5760405162461bcd60e51b815260206004820152601760248201527f5045524d49545f444541444c494e455f4558504952454400000000000000000060448201526064015b60405180910390fd5b6000600161056961041b565b6001600160a01b038a811660008181526005602090815260409182902080546001810190915582517f6e71edae12b1b97f4d1f60370fef10105fa2faae0126114a169c64845d6126c98184015280840194909452938d166060840152608083018c905260a083019390935260c08083018b90528151808403909101815260e08301909152805192019190912061190160f01b6101008301526101028201929092526101228101919091526101420160408051601f198184030181528282528051602091820120600084529083018083525260ff871690820152606081018590526080810184905260a0016020604051602081039080840390855afa158015610675573d6000803e3d6000fd5b5050604051601f1901519150506001600160a01b038116158015906106ab5750876001600160a01b0316816001600160a01b0316145b6106e85760405162461bcd60e51b815260206004820152600e60248201526d24a72b20a624a22fa9a4a3a722a960911b6044820152606401610554565b6001600160a01b0390811660009081526004602090815260408083208a8516808552908352928190208990555188815291928a16917f8c5be1e5ebec7d5bd14f71427d1e84f3dd0314c0f7b2291e5b200ac8c7c3b925910160405180910390a350505050505050565b60007f8b73c3c69bb8fe3d512ecc4cf759cc79239f7b179b0ffacaa9a75d522b39400f60006040516107839190610a6a565b6040805191829003822060208301939093528101919091527fc89efdaa54c0f20c7adf612882df0950f5a951637e0307cdcb4c672f298b8bc660608201524660808201523060a082015260c00160405160208183030381529060405280519060200120905090565b80600260008282546107fd9190610b09565b90915550506001600160a01b0382166000818152600360209081526040808320805486019055518481527fddf252ad1be2c89b69c2b068fc378daa952ba7f163c4a11628f55a4df523b3ef910160405180910390a35050565b600060208083528351808285015260005b8181101561088357858101830151858201604001528201610867565b506000604082860101526040601f19601f8301168501019250505092915050565b80356001600160a01b03811681146108bb57600080fd5b919050565b600080604083850312156108d357600080fd5b6108dc836108a4565b946020939093013593505050565b6000806000606084860312156108ff57600080fd5b610908846108a4565b9250610916602085016108a4565b9150604084013590509250925092565b60006020828403121561093857600080fd5b5035919050565b60006020828403121561095157600080fd5b61095a826108a4565b9392505050565b600080600080600080600060e0888a03121561097c57600080fd5b610985886108a4565b9650610993602089016108a4565b95506040880135945060608801359350608088013560ff811681146109b757600080fd5b9699959850939692959460a0840135945060c09093013592915050565b600080604083850312156109e757600080fd5b6109f0836108a4565b91506109fe602084016108a4565b90509250929050565b600181811c90821680610a1b57607f821691505b602082108103610a3b57634e487b7160e01b600052602260045260246000fd5b50919050565b634e487b7160e01b600052601160045260246000fd5b8181038181111561032357610323610a41565b600080835481600182811c915080831680610a8657607f831692505b60208084108203610aa557634e487b7160e01b86526022600452602486fd5b818015610ab95760018114610ace57610afb565b60ff1986168952841515850289019650610afb565b60008a81526020902060005b86811015610af35781548b820152908501908301610ada565b505084890196505b509498975050505050505050565b8082018082111561032357610323610a4156fea2646970667358221220bd0da281f208f3098d70aeb76fce6286b7cdeb353fc76da9c8612ce17055eeb364736f6c63430008150033","linkReferences":{}},"methodIdentifiers":{"DOMAIN_SEPARATOR()":"3644e515","allowance(address,address)":"dd62ed3e","approve(address,uint256)":"095ea7b3","balanceOf(address)":"70a08231","decimals()":"313ce567","faucet(uint256)":"57915897","name()":"06fdde03","nonces(address)":"7ecebe00","permit(address,address,uint256,uint256,uint8,bytes32,bytes32)":"d505accf","symbol()":"95d89b41","totalSupply()":"18160ddd","transfer(address,uint256)":"a9059cbb","transferFrom(address,address,uint256)":"23b872dd"},"id":9}